:1000000004308A00E92C0000FF00030E8301A100E8
:100010000A08A0008A010408A2007708A300780853
:10002000A4007908A5007A08A600831383128C30F7
:100030008400001F1D280C1B2E2822088400230882
:10004000F7002408F8002508F9002608FA0020081F
:100050008A00210E8300FF0E7F0E09008A110A120A
:100060004E280A108A100A11820728340C340134F1
:100070000634493084008313000803194D280130E9
:10008000F800F701F70B4228F80B41284A30F70037
:10009000F70B48284B28800B3F2808008716C830EC
:1000A000C900392087120C138A110A121D280C105E
:1000B0000910D334E3306B36E93500000A1009101B
:1000C000D53CE73AEC30ED30F33400000C10E4346A
:1000D000EA34F4306C103D10253675000A10F33404
:1000E000E3306B36E935A01EA0122E18E612E3218C
:1000F0000014440EF039F7000F300605770486002F
:10010000000006148328061008000608F700060EF3
:100110000F39F800080083160610861006118312A6
:1001200086100F3083160605F038860083120615F8
:1001300000000614000085207808C40006100000A6
:100140000614000085207808C30006100F308316BF
:10015000060586008312440EF700F030F705770895
:100160004304F8007808C300C31B9128411C861083
:10017000411886140000061100000610420EC3004C
:100180000F30C3054308C400792042080F39C3006B
:10019000C400792008000F3083160605860006107B
:1001A000861006118312861006110610A7018B1BFC
:1001B000A7178B130F30C9003920A71B8B170130ED
:1001C000AF002F08033C031CF3280330C400792040
:1001D000A7018B1BA7178B130530C9003920A71B5C
:1001E0008B17AF0AE1280230C4007920A7018B1BCE
:1001F000A7178B130530C9003920A71B8B17AF0138
:100200002F08033C031C0D292F083120B000C10129
:100210003008C2008B20AF0A00298A110A120C2D67
:100220003E0B132916294030BF001729BF010130AA
:100230003D02BF073F088038C000C1014008C2002E
:100240008B2008003C08073A031930290B3A0319A0
:100250003529063A03194329023A031949294E2937
:100260000130BD00BE0010215329C1010130C20080
:100270008B20A7018B1BA7178B130230C9003920D5
:10028000A71B8B1753290130BD000230BE0010217F
:100290005329C1011030C2008B2053290130C10005
:1002A0003C08C2008B2008000B08AF008B1383169C
:1002B00003178C170C140000000083120C087F3900
:1002C00003199B290313B00003170D080313B10092
:1002D00003170F080313B2003008BC0022213108B5
:1002E00003178D000313320803178F0083168C1732
:1002F0000C140000000083120C0D0E0D7F39031941
:100300009B290313B00003170D080313B100031753
:100310000F080313B2003008BC0022213108031774
:100320008D000313320803178F008D0A03198F0AFB
:100330000313572903170313AF1B8B1708008E30C5
:10034000F7003008F8002F08F900FA01F808031D3B
:10035000B3297908F800F9010830F702F808031DFD
:10036000B329F701BB290310F81BBA29F90DF80DC1
:10037000F703B329F8138A110A12402D3C08031918
:100380002E2AC400400803192E2AC4070318CF29B7
:100390007F30C402031C2E2A03192E2AD329813050
:1003A000C40703182E2A4408F700F801F901FA01DE
:1003B0003D08C800C8173E08C7003F08C6001830EF
:1003C000C400C501461CFC294308FA07031CEE299A
:1003D000F90A031DEE29F80A0319C5174208F9079F
:1003E000031CF529F80A0319C5174108BE00BE17FA
:1003F0003E08F8070318C517C50DF80CF90CFA0CE0
:10040000C80CC70CC60C0310C40BE1290130F70758
:1004100003182E2AF81B132AC80DFA0DF90DF80D32
:10042000F70303192E2AC81F242AFA0A031D242AB7
:10043000F90A031D242AF80A031D242AF80CF90CD2
:10044000FA0CF70A03192E2A3D08C5004108C50613
:10045000C51F2C2AF817322AF813322AF701F8019F
:10046000F901FA01080033080319F82ABF00370818
:100470000319F82ABF02031C422A7F30BF07031862
:10048000F82A482A8130BF02031CF82A0319F82AE7
:100490003F08F700F801F901FA01BE013408BD0078
:1004A000BD173508BC003608BB001930BF003A083C
:1004B000BB0203186B2A0130BC0203186B2ABD0271
:1004C00003186B2ABE0203186B2ABE0ABD0ABC0AB7
:1004D0003A08BB079D2A3908BC020318862A013056
:1004E000BD020318862ABE020318862ABE0ABD0A68
:1004F0003908BC073A08BB07031C9D2ABC0A031D28
:100500009D2ABD0A031D9D2ABE0A9D2A38088038EF
:10051000BD0203189C2A0130BE0203189C2ABE0AA1
:1005200038088038BD073908BC07031C7A2ABD0A81
:10053000031D7A2ABE0A7A2A7A14BF0BA02AAB2A94
:100540000310BB0DBC0DBD0DBE0D0310FA0DF90D52
:10055000F80DC00D572A401CB32A0310F80CF90CF3
:10056000FA0CC00CB62AF7030319F82AC01BDF2ABD
:100570000310BB0DBC0DBD0DBE0D3A08BB02031828
:10058000CB2A0130BC020318CB2ABD020318CB2AA8
:10059000BE02031CEE2A3908BC020318D62A013019
:1005A000BD020318D62ABE02031CEE2A3808803882
:1005B000BD020318DF2A0130BE02031CEE2AFA0A2C
:1005C000031DEE2AF90A031DEE2AF80A031DEE2A7E
:1005D000F70A0319F82AF80CF90CFA0C3408BF00D2
:1005E0003808BF06BF1FF62AF817FC2AF813FC2AA2
:1005F000F701F801F901FA018A110A12682D0B08B6
:10060000B0008B13831603178C170C140000000026
:100610000318312B83120C087F390313B100031721
:100620000D080313B20003170F080313B3003108BA
:10063000BC002221320803178D000313330803176F
:100640008F0083168C170C14000000008312031314
:10065000AF0B2B2B2E2B83160317312B502B83160E
:10066000031783120C0D0E0D7F390313B10003170E
:100670000D080313B20003170F080313B30031086A
:10068000BC002221320803178D000313330803171F
:100690008F008D0A03198F0A03100313AF0B022B6F
:1006A000B01B8B170800B7010408B6003710831B76
:1006B0003714300EF038B200B207E23EB300323EDB
:1006C000B50030080F39B307B307B507E93EB400EA
:1006D000B407B4072F0E0F39B407B507B40DB50D25
:1006E000B509B50D2F080F39B507B20D0730B100A8
:1006F0000A30B507B403031C792BB407B303031CFA
:100700007D2BB307B203031C812BB207B103031C7B
:10071000852B313084008313073036053613840768
:1007200035300402031936170008F700031DA02B0B
:10073000361BA02B361AB22BB619A02B2030A32BB8
:10074000B61536123030F707B0010408AF0030108C
:10075000831B30147708BC0022212F0884008313E8
:1007600030188317840A361F902B8A110A12812DA4
:100770008318BD2B443084008313F701F801F9017D
:10078000FA01C401C501C601C7014308420441047E
:1007900040040319FB2B2030C8000310BC0DBD0D15
:1007A000BE0DBF0DC40DC50DC60DC70D43084702D4
:1007B000031DE42B42084602031DE42B41084502B9
:1007C000031DE42B40084402031CF52B4008C4021F
:1007D0004108031C410FC5024208031C420FC60218
:1007E0004308031C430FC7020314F70DF80DF90D5E
:1007F000FA0DC80BCD2B44088000840A4508800000
:10080000840A46088000840A47088000080004081B
:10081000B4003308B6000319262C3208BF00310893
:10082000BE003008BD002F08BC00C301C20120304B
:10083000C1008230C000BE217A08B2007908B10040
:100840007808B0007708AF00B60B0D2C3208BF0057
:100850003108BE003008BD002F08BC003C08B63C83
:10086000BC00FA013D08C000BD170310BD0CBE0C52
:10087000BF0CFA0CF90CF80CF70CBC0B352CC01F94
:100880004C2CF709F809F909FA09F70A0319F80ACB
:100890000319F90A0319FA0A7A08B2007908B100B3
:1008A0007808B0007708AF00B21F632CB403B41609
:1008B000AF09B009B109B209AF0A0319B00A0319A7
:1008C000B10A0319B20A3B30BB009A30BA00CA30F1
:1008D000B900B8010A30B60033080319B40A83140A
:1008E0002F30840083133208BF003108BE00300867
:1008F000BD002F08BC003B08C3003A08C2003908FD
:10090000C1003808C000B8237808F708031D9B2CE5
:10091000330A360203199B2C340803199D2C0F3916
:1009200036020319952C0318CD2CB41BCD2C341B87
:100930009D2C2030C92C2030B405B41EAB2CB41231
:100940003308031DB4037708B4002D30BC00222106
:100950003408F700B40133083602031DB92C7708B8
:10096000B4002E30BC0022213408F7002030B4053A
:1009700000303030B41EC92CB4123308031DB40348
:100980007708B4002D30BC0022213408F700B401F0
:100990003030F7077708BC00222183103B08BF00E6
:1009A0003A08BE003908BD003808BC00C301C201C6
:1009B000C1010A30C000B8237A08BB007908BA0028
:1009C0007808B9007708B800B60B6F2C8A110A12A4
:1009D000972D83161F149F141F159F1183131F300B
:1009E0008305F03083129D050030831687000914BB
:1009F00089140915831287011F139F1783169F17E8
:100A000083121F1483161F109F101F119F110C17A4
:100A1000C03083128B04CB28573003178D00003071
:100A20008F00031354215E3003178D0000308F00B8
:100A3000031354210630AF00A7018B1BA7178B139C
:100A4000FA30C9003920A71B8B17AF0B1C2D28309B
:100A5000F8001F08C73978049F000630F700F70B2D
:100A60002F2D00001F151F19332D83161E0883120A
:100A7000A8001E08A9002908B0002808AF009F2977
:100A80007A08BF007908BE007808BD007708BC006E
:100A9000C301C2012030C1007730C000BE217A08F6
:100AA000B2007908B1007808B0007708AF007A0882
:100AB000B6007908B5007808B4007708B300C230F2
:100AC000BA00A330B9004D30B8007B30B700332AEC
:100AD0007A08AD007908AC007808AB007708AA0066
:100AE000663003178D0000308F0003100C300313A5
:100AF000AF00FF22103084002908B0002808AF00A2
:100B0000532B6E3003178D0000308F0003100D3013
:100B10000313AF00FF22893084002D08B2002C0897
:100B2000B1002B08B0002A08AF00B301072CDF305A
:0E0B3000BC0022214330BC002221272D63008F
:02400E00393F38
:00000001FF
;PIC16F877
;CRC=A378  CREATED="02-Haz-23 13:21"
